:1000000012C01FC01EC01DC01CC01BC01AC01AC019
:1000100045C017C016C015C014C013C012C011C00F
:1000200010C00FC00EC011241FBECFEDCDBF20E009
:10003000A0E6B0E001C01D92A53BB207E1F7AAD04F
:10004000AAC0DECF1F920F920FB60F9211242F93EA
:100050008F939F93EF93FF938BB19CB18871E09145
:100060006200EF5FEF7120916100E21739F0E093D9
:100070006200F0E0EB59FF4F908301C082E0909165
:100080006000982B90936000FF91EF919F918F916A
:100090002F910F900FBE0F901F9018951F920F92E7
:1000A0000FB60F9211248F939F93EF93FF9390912C
:1000B000640080916300981761F0E0916300EF5F46
:1000C000EF71E0936300F0E0EB57FF4F80818CB954
:1000D00001C05598FF91EF919F918F910F900FBEA6
:1000E0000F901F9018951092640010926300109268
:1000F00062001092610097FF03C022E02BB99F7746
:1001000092B989B988E98AB986E083B9089590914E
:10011000620080916100981781F0E0916100EF5FCB
:10012000EF71E0936100F0E0EB59FF4F8081909117
:1001300060001092600090E0089580E091E00895E2
:10014000909164009F5F9F71209163009217E1F38B
:10015000E92FF0E0EB57FF4F808390936400559AAE
:100160000895CF93DF93EC018991882311F0E8DFA4
:10017000FBCFDF91CF910895CF93DF93FC01849162
:10018000EF012196882319F0DBDFFE01F8CFDF9124
:0A019000CF910895FFCFF894FFCF40
:00000001FF
